:020000020000FC
:02000000FFCF30
:103C0000F894A89504E00EBF0FEF0DBF0E94FE1EB2
:103C10000E94121F0E94391F002311F00C94000013
:103C20000E941E1F0E94371F0E94461F093459F030
:103C3000013561F0023561F0023769F0073771F044
:103C4000073579F0F1CF0E94351EEECF0C944C1E53
:103C50000E94531EE9CF0E947A1EE6CF0E94951E55
:103C6000E3CF0E94B71EE0CFFFCF0F931F93EF93D8
:103C7000FF930FB70F93EEEEFDE3112705910E941E
:103C8000541F13951E3009F0F9CF0F910FBFFF910C
:103C9000EF911F910F91089502E40E94541F0E941A
:103CA000541F0C9400000F931F930FB70F930E94A3
:103CB000461F102F003820F001E00E94541F15C04D
:103CC00000E00E94541FFF27E12F0027112788944E
:103CD000FF0FEE0FF11F03950730C8F31127059171
:103CE0000E94541F13951038D0F30F910FBF1F91EE
:103CF0000F9108950F931F932F93AF93BF930FB717
:103D00000F93AA27BB2710E022E00E94621F0E94A7
:103D1000541F1196A117B207C1F70F910FBFBF91A2
:103D2000AF912F911F910F9108950F931F932F9390
:103D3000AF93BF930FB70F93AA27BB2710E022E0E2
:103D40000E94461F0E94701F1196A117B20721F012
:103D50000EE60E94541FF4CF06E60E94541F0F91F6
:103D60000FBFBF91AF912F911F910F9108950F92A7
:103D70001F920F931F932F93EF93FF930FB70F9300
:103D80000E94461F102F083720F001E00E94541FA8
:103D900024C000E00E94541F0E947F1F22270E941F
:103DA000461F002E0E94461F102E01E00E948E1F0B
:103DB00032962395203498F30E947F1FA89503E044
:103DC0000E948E1FA89505E00E948E1FA89501E114
:103DD0000E948E1F00E00E94541F0F910FBFFF91A1
:103DE000EF912F911F910F911F900F9008954642D0
:103DF0004C01000000000003000000010F931F931E
:103E00000FB70F9304B7077F04BF11E20091600062
:103E1000086100936000109360000F910FBF1F9125
:103E20000F9108950F930FB70F93002704B907B9A7
:103E30000AB9289A0F910FBF0F9108950F930FB7EA
:103E40000F93399A41980CE00093C40000E0007F82
:103E50000093C50002E00093C00008E10093C10098
:103E600006E00093C2000F910FBF0F910895419A91
:103E700008951F931FB71F9303B1017029F00FEF2F
:103E80001F911FBF1F9108950027FACF1F931FB7DF
:103E90001F93A8950091C00007FFFBCF0091C600BB
:103EA0001F911FBF1F9108951F931FB71F93A895C0
:103EB0001091C00015FFFBCF0093C6001F911FBFDC
:103EC0001F9108951F931FB71F93A895F999FDCFD0
:103ED000B2BDA1BDF89A00B51F911FBF1F910895F3
:103EE0001F931FB71F93A895F999FDCFB2BDA1BD30
:103EF00000BDFA9AF99A1F911FBF1F9108950F9361
:103F00000FB70F93E12FE170E0FBEE27E7F9F12FF8
:103F1000FE77F6950F910FBF0F9108951F931FB76E
:103F20001F93A89517B710FDFCCF07BFE8951F9109
:063F30001FBF1F91089560
:00000001FF
